:040000000BEF00F012
:100008005982FACF4BF0FBCF4CF07BED18F01FEF85
:1000180019F0C50E0001CC6F000E0001CD6F32D271
:10002800250E0001D919D8B40AD0C1C0D9FFC2C061
:10003800DAFFD9C0DFFF0001C14BC22B23D2000E6B
:100048000001D76F000ED66F000E0001D56F000EAD
:10005800D46F05D00001D4870001C34BC42BC3C0A3
:10006800F6FFC4C0F7FF0800F5502D0AD8B4F2D740
:10007800C3C0F6FFC4C0F7FF0800F5504CEC1BF0F6
:10008800D8A040D0000E0001D76F000ED66FD6C0A2
:10009800BAF0D7C0BBF0000E0001BD6F0A0EBC6FEE
:1000A80084EC1AF0BAC0D6F0BBC0D7F0D00E00016D
:1000B800C76FFF0E0001C86FC3C0F6FFC4C0F7FFCB
:1000C8000800F5500001C96FCA6B0001C751000153
:1000D800C9270001C8510001CA230001C951000104
:1000E800D6270001CA510001D7230001C34BC42BF6
:1000F800C3C0F6FFC4C0F7FF0800F5504CEC1BF076
:10010800D8B0C5D7C3C0F6FFC4C0F7FF0800F55084
:100118002E0AD8A427D00001D58D0001C34BC42BCB
:10012800000E0001D86F13D0C3C0F6FFC4C0F7FF9C
:100138000800F5CFC7F00001D8510A0DF3500001AF
:10014800C725D00F0001D86F0001C34BC42BC3C013
:10015800F6FFC4C0F7FF0800F5504CEC1BF0D8A020
:1001680095D0E2D7000E0001D86F90D00001D58B52
:10017800A2D00001D8510001D8B417D0D8C0C7F018
:100188000001C86BC7BFC8070001D2510001C75D95
:100198000001D3510001C859D8B007D00001D85187
:1001A8000001D26FD36BD2BFD3070001D651000133
:1001B800D25D0001D7510001D359D8B009D0000150
:1001C800D2510001D65F0001D3510001D75B05D0A1
:1001D800000E0001D76F000ED66F0001D4A70AD019
:1001E80025D0C1C0D9FFC2C0DAFF200EDF6E0001E2
:1001F800C14BC22B0001D607D8A0D7070001D629CA
:10020800F0E10001D729D8B411D0EBD7CEC0D9FF7F
:10021800CFC0DAFFC1C0E1FFC2C0E2FFDFCFE7FF16
:100228000001CE4BCF2B0001C14BC22B0001D207DE
:10023800D8A0D3070001D229E9E10001D329D8A425
:10024800E5D70001D4B70AD01DD1C1C0D9FFC2C0BB
:10025800DAFF200EDF6E0001C14BC22B0001D6076A
:10026800D8A0D7070001D629F0E10001D729D8B4D2
:1002780009D1EBD7D90E0001CE6F000E0001CF6F68
:10028800000E0001D36F010ED26F73D7C3C0F6FF03
:10029800C4C0F7FF0001C34BC42B0800F5CFD9F049
:1002A8000001D951000AD8B4FBD0700AD8B45ED77F
:1002B800080AD8A4DFD7CCC0D9FFCDC0DAFFDECF7B
:1002C800D0F0DDCFD1F0020E0001CC27000ECD23F7
:1002D8000001D8510001D8A408D00001D051000174
:1002E800D111D8A402D00001D82B010E0001D96F7A
:1002F800040E0001D919D8B416D00001D951020D45
:10030800590EF324F66E7D0EF420F76E0900F550B1
:100318000001D05D0900F5500001D159D8A003D0E3
:100328000001D92BE5D70001D951800A0001C76F18
:100338000001D851800A0001C75DD8B003D0D8C0E9
:10034800D9F00DD00001D851800A0001C76F000113
:10035800D951800A0001C75DD8A0D9C0D8F0800E55
:100368000001D9BF7F0E0001C76F0001D6510001FF
:10037800D95D0001D751800A0001C759D8B00BD008
:100388000001D9510001D65F000E0001D9BFFF0E50
:100398000001D75B05D0000E0001D76F000ED66FA5
:1003A8000001D6510001D711D8B446D00001D4B706
:1003B80043D0C1C0D9FFC2C0DAFF200EDF6E0001F2
:1003C800C14BC22B0001D607D8A0D7070001D651D0
:1003D8000001D711D8B430D0ECD7D0C0BAF0D1C012
:1003E800BBF00001D851020D590EF324F66E7D0EB4
:1003F800F420F76E0900F5CFBCF00A00F5CFBDF088
:10040800CDEC17F00001BA510F0B0001CB6F0001C2
:10041800CB51010DC60EF324F66E7F0EF420F76E55
:100428000800F5CFD9F0C1C0D9FFC2C0DAFFD9C0E2
:10043800DFFF0001C14BC22B0001D8070001D829FA
:10044800D8A4CBD70001D4A71DD00001D7BF1AD09C
:100458000001D75104E10001D605D8A013D0C1C0CE
:10046800D9FFC2C0DAFF200EDF6E0001C14BC22BDC
:100478000001D607D8A0D7070001D6510001D7112F
:10048800D8A4EDD7C3C0F6FFC4C0F7FF0001C34B23
:10049800C42B0800F5CFD9F00001D951D8A4C0D594
:1004A800C1C0D9FFC2C0DAFF000EDF6E1200000122
:1004B80020EE09F0F051D926F151DA22DECFBAF058
:1004C800DECFBBF0DDCFBCF006EC1BF0BAC0D5F038
:1004D800BBC0D6F0BCC0D7F0000120EE06F0F0514A
:1004E800D926F151DA22DECFD8F0DECFD9F0DDCF30
:1004F800DAF08EEC05F0000120EE0CF0F051D92670
:10050800F151DA22D5C0DEFFD6C0DEFFD7C0DEFF4C
:10051800000E0001D56F000E0001D66F400E0001DD
:10052800D76F000120EE0CF0F051D926F151DA22F4
:10053800DECFD8F0DECFD9F0DDCFDAF0D7EC13F08C
:100548000001D8A01BD0000120EE0CF0F051D926F4
:10055800F151DA22DECFD5F0DECFD6F0DDCFD7F0FD
:10056800000E0001D86F000E0001D96FC00E000107
:10057800DA6FD7EC13F00001D8B01200000120EEBA
:1005880015F0F051D926F151DA22DE50DE10D8A448
:1005980097D0000E0001D56F000E0001D66F000E37
:1005A8000001D76F000120EE0CF0F051D926F1516F
:1005B800DA22DECFD8F0DECFD9F0DDCFDAF0D7EC13
:1005C80013F00001D8B038D0000120EE0FF0F05140
:1005D800D926F151DA22DECFD5F0DECFD6F0DDCF45
:1005E800D7F0000E0001D86FFA0E0001D96F460E41
:1005F8000001DA6FD7EC13F00001D8B061D0000128
:1006080020EE0FF0F051D926F151DA22DECFD5F0E5
:10061800DECFD6F0DDCFD7F0000120EE0CF0F051A0
:10062800D926F151DA22DECFD8F0DECFD9F0DDCFEE
:10063800DAF08EEC05F037D0000E0001D56FFA0E17
:100648000001D66FC60E0001D76F000120EE0FF033
:10065800F051D926F151DA22DECFD8F0DECFD9F029
:10066800DDCFDAF0D7EC13F00001D8B029D00001C3
:1006780020EE0FF0F051D926F151DA22DECFD5F075
:10068800DECFD6F0DDCFD7F0000120EE0CF0F05130
:10069800D926F151DA22DECFD8F0DECFD9F0DDCF7E
:1006A800DAF08EEC05F0000120EE0FF0F051D926BB
:1006B800F151DA22D5C0DEFFD6C0DEFFD7C0DEFF9B
:1006C800000120EE0FF0F051D926F151DA22DECFE9
:1006D800C9F0DECFCAF0DDCFCBF0000120EE02F08A
:1006E800F051D926F151DA22DECFC2F0DDCFC3F0C6
:1006F80023EC1AF0C2C0C6F0C3C0C7F0C4C0C8F02B
:10070800D2EC09F0C6C0D8F0C7C0D9F0C8C0DAF03A
:10071800000120EE0CF0F051D926F151DA22DECF9B
:10072800C9F0DECFCAF0DDCFCBF0F0C0D9FFF1C001
:10073800DAFFDECFC2F0DDCFC3F023EC1AF0C2C07F
:10074800C6F0C3C0C7F0C4C0C8F0D2EC09F0C6C038
:10075800D5F0C7C0D6F0C8C0D7F08EEC05F0D5C02C
:10076800E1F0D6C0E2F0D7C0E3F0000E0001E46F7C
:10077800800E0001E56F430E0001E66F2DEC0BF0D3
:10078800000120EE12F0F051D926F151DA22E1C031
:10079800DEFFE2C0DEFFE3C0DEFF000120EE04F072
:1007A800F051D926F151DA22DECFC2F0DDCFC3F005
:1007B80023EC1AF0C2C0D5F0C3C0D6F0C4C0D7F03D
:1007C800000120EE12F0F051D926F151DA22DECFE5
:1007D800D8F0DECFD9F0DDCFDAF0D7EC13F0000196
:1007E800D8B026D0000120EE15F0F051D926F151ED
:1007F800DA22010EDE6E000EDD6E000120EE04F03E
:10080800F051D926F151DA22DECFC2F0DDCFC3F0A4
:1008180023EC1AF0000120EE12F0F051D926F15124
:10082800DA22C2C0DEFFC3C0DEFFC4C0DEFF120092
:10083800000120EE12F0F051D926F151DA22020E11
:10084800DBAE19D0000120EE15F0F051D926F15198
:10085800DA22010EDE6E000EDD6E000120EE12F0CF
:10086800F051D926F151DA22000EDE6E000EDE6E4E
:10087800000EDE6E1200000120EE15F0F051D926B0
:10088800F151DA22000EDE6E000EDD6E1200040158
:100898003205D8A411D0040130511F0B0009D8A487
:1008A8000BD00001758F030E04013119D8A402D0B2
:1008B800010E01D0000E0E6E04013251D8A41200B0
:1008C800040130511F0B020AD8A41200040134514C
:1008D8000F0B0009D8B41200040134510F0B416EFC
:1008E800030E41601200200E00019F19D8A41200C7
:1008F8000001758F040134BF1BD0040134510F0B64
:10090800416E4150020D7E0EF324D96E000EF42084
:10091800DA6EDECF45F0DDCF46F0040134510F0B1F
:10092800416E4150010D8E0EF324D96E000E1AD07F
:10093800040134510F0B416E4150020D780EF3241F
:10094800D96E000EF420DA6EDECF45F0DDCF46F02A
:10095800040134510F0B416E4150010D8B0EF324ED
:10096800D96E000EF420DA6EDF50446E44B002D027
:10097800459401D04584040134BF0BD0040134519F
:100988000F0B416E4150020D7E0EF324D96E000EFE
:100998000AD0040134510F0B416E4150020D780EFC
:1009A800F324D96E000EF420DA6E45C0DEFF46C08F
:1009B800DDFF030E04013119D8A42FD045C0D9FF9B
:1009C80046C0DAFFDFAE1CD0040134BF0BD00401EF
:1009D80034510F0B416E4150010D8E0EF324D96E28
:1009E800000E0AD0040134510F0B416E4150010D25
:1009F8008B0EF324D96E000EF420DA6E0001DF822C
:100A080045C0D9FF46C0DAFF000EDB8445C0D9FFD8
:100A180046C0DAFF000EDB8E1200040E451A45C0F0
:100A2800D9FF46C0DAFFDFAE1BD045C0D9FF46C0AC
:100A3800DAFF7F0EDF1645C0D9FF46C0DAFF000E89
:100A4800DB8C000E3A6E050E396E45C03BF046C091
:100A58003CF0000E3E6E020E3D6E4EEC19F006D0D4
:100A680045C0D9FF46C0DAFF000EDB8C040E451ADC
:100A780044B206D045C0D9FF46C0DAFFDFAE31D058
:100A8800040134BF0BD0040134510F0B416E4150A7
:100A9800010D8E0EF324D96E000E0AD004013451D4
:100AA8000F0B416E4150010D8B0EF324D96E000ED1
:100AB800F420DA6E0001DF9245C0D9FF46C0DAFFA4
:100AC8003B0EDF16000E3A6E050E396E45C03BF040
:100AD80046C03CF0000E3E6E020E3D6E4EEC19F024
:100AE80006D045C0D9FF46C0DAFF3B0EDF16040129
:100AF80034510F0B416E4150010D700EF324426EBC
:100B08000F0EF420436E42C0D9FF43C0DAFFFE0E39
:100B1800DF161200D7C0DBF00001DC6BDD6B0001D3
:100B2800D6350001DB3701E3DC810001DB51000130
:100B3800E06FDAC0DBF00001DC6BDD6B0001D9355A
:100B48000001DB3701E3DC810001DB510001DF6FCD
:100B58000001E0510001D8B411D00001DF510001BB
:100B6800E05DD8B012D00001E05100080001DF2597
:100B78000001DB6F180E0001DB6507D0D8C0D5F087
:100B8800D9C0D6F0DAC0D7F012000001DF51000159
:100B9800D8B411D00001E0510001DF5DD8B012D007
:100BA8000001DF5100080001E0250001DB6F180E8D
:100BB8000001DB6507D0D5C0D5F0D6C0D6F0D7C0C8
:100BC800D7F01200060E0001DE6F0001D7AF02D089
:100BD8000001DE8F0001DAAF02D00001DE8D0001D6
:100BE800D68FFF0E0001D517FF0E0001D617000E95
:100BF8000001D7170001D98FFF0E0001D817FF0E8B
:100C08000001D917000E0001DA170001DF510001B9
:100C1800E05DD8B025D00001D890D837D937DA3779
:100C28000001DF070001E0510001DF19D8B411D03D
:100C38000001DE07DEC0DBF0070E0001DB17D8B4C9
:100C480008D0E9D70001D890D733D633D53300017F
:100C5800E02B0001DF510001E019D8B42BD0F2D706
:100C68000001E0510001DF5DD8B024D00001D89028
:100C7800D537D637D7370001E0070001E05100012A
:100C8800DF19D8B411D00001DE07DEC0DBF0070E93
:100C98000001DB17D8B408D0E9D70001D890DA33BF
:100CA800D933D8330001DF2B0001DF510001E019EF
:100CB800D8A4F3D70001DEAF12D0FF0E0001D51B78
:100CC800FF0E0001D61BFF0E0001D71B010E00010D
:100CD800D527000E0001D623000E0001D7230001FE
:100CE800DEAD12D0FF0E0001D81BFF0E0001D91B8C
:100CF800FF0E0001DA1B010E0001D827000E0001CB
:100D0800D923000E0001DA23000E0001DE6F000176
:100D1800D5510001D8270001D6510001D92300017F
:100D2800D7510001DA230001DAAF15D0FF0E000118
:100D3800D81BFF0E0001D91BFF0E0001DA1B010EA4
:100D48000001D827000E0001D923000E0001DA2384
:100D5800010E0001DE6FD8C0BAF0D9C0BBF0DAC00E
:100D6800BCF0E0C0BDF0DEC0BEF034EC0EF0BAC09E
:100D7800D5F0BBC0D6F0BCC0D7F01200000E010100
:100D8800006F000E0101016F000E0101026F000EDD
:100D98000101046F010E036F000E0001F06F010ED8
:100DA8000001F16F870E69EC11F0F0C003F1F1C09A
:100DB80004F10101035101010411D8B406D0000E59
:100DC8000001FE6F010EFD6F120000018851000145
:100DD800C26F000189510001C36F00018A510001EF
:100DE800C46F0001C56B49EC17F00001C251010145
:100DF800B95D0001C3510101BA59D8B017D0FDC07F
:100E0800BAF0FEC0BBF0F40E0001BC6F7F0E00010B
:100E1800BD6F000E0001BF6F050EBE6F42EC18F0EB
:100E2800000E0001FE6F000EFD6F120000C1D5F02C
:100E380001C1D6F002C1D7F09FC1C9F0A0C1CAF064
:100E4800A1C1CBF088C1C2F089C1C3F061EC1BF02D
:100E5800C2C0C6F0C3C0C7F0C4C0C8F0D2EC09F025
:100E6800C6C0D8F0C7C0D9F0C8C0DAF0D7EC13F0C4
:100E78000001D8A017D0FDC0BAF0FEC0BBF0FA0E32
:100E88000001BC6F7F0E0001BD6F000E0001BF6F37
:100E9800030EBE6F42EC18F0000E0001FE6F000E4C
:100EA800FD6F12008CC1A9F08DC1AAF08EC1ABF004
:100EB800D70E72EC13F0F6C003F1F7C004F101018C
:100EC800035101010411D8B406D0000E0001FE6FD1
:100ED800010EFD6F1200FDC0BAF0FEC0BBF0E50EBA
:100EE8000001BC6F7F0E0001BD6F000E0001BF6FD7
:100EF800080EBE6F42EC18F0000E0001FE6F000EE7
:100F0800FD6F1200000E0101006F000E0101016F5C
:100F1800000E0101026F000E0101046F010E036F44
:100F2800000E0001F06F010E0001F16F870E69ECF1
:100F380011F0F0C003F1F1C004F101010351010106
:100F48000411D8B406D0000E0001FE6F010EFD6F2B
:100F58001200000197510001C26F00019851000171
:100F6800C36F000199510001C46F0001C56B49ECC2
:100F780017F00101A5510001C25D0101A651000150
:100F8800C359D8A017D0FDC0BAF0FEC0BBF0F40E0C
:100F98000001BC6F7F0E0001BD6F000E0001BF6F26
:100FA800050EBE6F42EC18F0000E0001FE6F000E39
:100FB800FD6F120000C1D5F001C1D6F002C1D7F013
:100FC800A2C1C9F0A3C1CAF0A4C1CBF088C1C2F0C4
:100FD80089C1C3F061EC1BF0C2C0C6F0C3C0C7F042
:100FE800C4C0C8F0D2EC09F0C6C0D8F0C7C0D9F068
:100FF800C8C0DAF0D7EC13F00001D8A017D0FDC0B4
:10100800BAF0FEC0BBF0FA0E0001BC6F7F0E000103
:10101800BD6F000E0001BF6F030EBE6F42EC18F0EB
:10102800000E0001FE6F000EFD6F1200A7C1A9F0AF
:10103800A8C1AAF0A9C1ABF0D70E72EC13F0F6C0A4
:1010480003F1F7C004F10101035101010411D8B4FF
:1010580006D0000E0001FE6F010EFD6F1200FDC0EC
:10106800BAF0FEC0BBF0E50E0001BC6F7F0E0001B8
:10107800BD6F000E0001BF6F080EBE6F42EC18F086
:10108800000E0001FE6F000EFD6F1200000E010140
:10109800006F000E0101016F000E0101026F000ECA
:1010A8000101046F010E036F000E0001F06F010EC5
:1010B8000001F16FD70E69EC11F0F0C003F1F1C037
:1010C80004F10101035101010411D8B406D0000E46
:1010D8000001FE6F010EFD6F120000018851000132
:1010E800C26F000189510001C36F00018A510001DC
:1010F800C46F0001C56B49EC17F00001C251010132
:10110800B95D0001C3510101BA59D8B017D0FDC06B
:10111800BAF0FEC0BBF0F40E0001BC6F7F0E0001F8
:10112800BD6F000E0001BF6F050EBE6F42EC18F0D8
:10113800000E0001FE6F000EFD6F120000C1D5F019
:1011480001C1D6F002C1D7F09CC1D8F09DC1D9F039
:101158009EC1DAF0D7EC13F00001D8A017D0FDC07B
:10116800BAF0FEC0BBF0FA0E0001BC6F7F0E0001A2
:10117800BD6F000E0001BF6F030EBE6F42EC18F08A
:10118800000E0001FE6F000EFD6F120088C1C2F054
:1011980089C1C3F061EC1BF0C2C0C6F0C3C0C7F080
:1011A800C4C0C8F09FC1C9F0A0C1CAF0A1C1CBF0AA
:1011B800D2EC09F0C6C0A9F0C7C0AAF0C8C0ABF00D
:1011C800870E72EC13F0F6C003F1F7C004F10101C9
:1011D800035101010411D8B406D0000E0001FE6FBE
:1011E800010EFD6F1200FDC0BAF0FEC0BBF0E50EA7
:1011F8000001BC6F7F0E0001BD6F000E0001BF6FC4
:10120800080EBE6F42EC18F0000E0001FE6F000ED3
:10121800FD6F1200A09A00019A5100019B11D8B4E9
:1012280013D09AC0D9FF9BC0DAFF0001DFAE04D00B
:101238000001C16BC12B02D00001C16B0001C1517B
:101248000001C26FC36B05D0000E0001C36F000E12
:10125800C26F0001C2510001C311D8B402D0A08AE4
:101268001200030E0001A119D8A403D0000E00013A
:10127800A16F0001A151D8A402D0A08A1200020EC9
:101288000001A119D8A417D0010E0001BA6F000EF1
:101298000001BB6F000E0001BC6F000E0001BD6FA6
:1012A800020EFDEC10F0BAC09AF0BBC09BF0030E22
:1012B8000001A16F71D00001A105D8A46DD0400E26
:1012C8000001A26504D0400E0001C56F02D0A2C083
:1012D800C5F00001C55100080001A2250001A26F58
:1012E800000E0001916F050E0001926FC5C0C4F099
:1012F8000001A051D8B413D02AD094C0D9FF95C00A
:10130800DAFF91C0E1FF92C0E2FFDFCFE7FF000103
:10131800914B922B0001944B952B0001C4070001BF
:10132800C4510001D8B418D0E8D794C0D9FF95C0EB
:10133800DAFF91C0E1FF92C0E2FFDFCFE7FF0001D3
:10134800914B922B0001944B952B0001C40700018F
:10135800C4510001D8A4E9D70001A251D8A40AD0E9
:10136800400E0001C519D8A402D0020E01D0030E08
:101378000001A16F010E0001BA6F000E0001BB6FE2
:10138800050E0001BC6FC5C0BDF0020EFDEC10F0EB
:10139800BAC09AF0BBC09BF0A08A1200C8C0CCF0BB
:1013A8000001CD6BCE6B0001C7350001CC3701E3DE
:1013B800CD810001CC510001CF6F0001CF51D8A4DD
:1013C8000AD0000E0001C66F000E0001C76F000EA4
:1013D8000001C86F1200CBC0CCF00001CD6BCE6B02
:1013E8000001CA350001CC3701E3CD810001CC51A1
:1013F8000001D46F0001D451D8A40AD0000E000116
:10140800C66F000E0001C76F000E0001C86F120002
:101418000001D4517B0F0001CF27C8C0D4F00001D0
:10142800CB510001D41B800E0001D4170001C78FD7
:101438000001CA8FFF0E0001C917FF0E0001CA176D
:10144800000E0001CB17000E0001D06F000E000146
:10145800D16F000E0001D26F070E0001D36F00019B
:10146800C6A10CD00001C9510001D0270001CA5102
:101478000001D1230001CB510001D2230001D890F3
:10148800C833C733C6330001D890C937CA37CB37FA
:101498000001D32FE4D7090E0001D36F0001C6A1C4
:1014A8000CD00001C9510001D0270001CA51000128
:1014B800D1230001CB510001D2230001D890C833B9
:1014C800C733C6330001D890D233D133D0330001AB
:1014D800D32FE4D7D0C0BAF0D1C0BBF0D2C0BCF093
:1014E800CFC0BDF0D4C0BEF034EC0EF0BAC0C6F028
:1014F800BBC0C7F0BCC0C8F01200A09A000E6A6E4C
:10150800000E686E000E706E710E0001BA6F0F0E3D
:101518000001BB6F000E0001BD6F000EBC6F000E16
:101528000001BF6F020EBE6FB9EC1AF0160E6F6E97
:101538009F0E6B6E7B0E696E000E0001C26F0B0E64
:101548000001C26501D010D00001C251040D000E87
:10155800F324D96E040EF420DA6EDE6ADE6ADE6ADF
:10156800DD6A0001C22BEBD76D8C000E6E6E6D9894
:101578006D9C0CD06896000E0001756F000E00017E
:101588006D6F000E00016F6F000E6E6F68B6F2D7B8
:10159800010E126E010E136E000E0F6E000E106E0D
:1015A800000E00019E6F000E0001C26F020E0001C6
:1015B800C26501D033D00001C251020D780EF32468
:1015C800D96E000EF420DA6E000EDE6E000EDD6EAF
:1015D8000001C251020D7E0EF324D96E000EF420D4
:1015E800DA6E000EDE6E000EDD6E0001C251010DD6
:1015F8008B0EF324D96E000EF420DA6E000EDF6E27
:101608000001C251010D8E0EF324D96E000EF42094
:10161800DA6E000EDF6E0001C22BC8D7080E00017B
:10162800786F040E0001796F160E706E040E0401B7
:10163800036F300E026F080E0401016F040E0401DF
:10164800006F0401008F000E2B6E000E00019F6FCB
:101658001200E3C0E7F00001E86BE96B0001E23536
:101668000001E73701E3E8810001E7510001EE6F6F
:101678000001EE51D8A40AD0000E0001E16F000E5F
:101688000001E26F000E0001E36F1200E6C0E7F010
:101698000001E86BE96B0001E5350001E73701E37C
:1016A800E8810001E7510001EF6F0001EF51D8A474
:1016B8000AD0000E0001E16F000E0001E26F000E7B
:1016C8000001E36F1200000E0001EB6F000E000135
:1016D800EC6F000E0001ED6F0001EF51890F000162
:1016E800EE5FE3C0EFF00001E6510001EF1B800E52
:1016F8000001EF170001E28FFF0E0001E117FF0E56
:101708000001E217000E0001E3170001E58FFF0E4C
:101718000001E417FF0E0001E517000E0001E617AF
:10172800180E0001EA6F0001D890EB37EC37ED375F
:101738000001E4510001E15D0001E5510001E259B9
:101748000001E6510001E359D8A00ED00001E45190
:101758000001E15F0001E5510001E25B0001E65193
:101768000001E35B0001EB810001D890E137E2372B
:10177800E3370001EA2FD7D7EBC0BAF0ECC0BBF0D3
:10178800EDC0BCF0EEC0BDF0EFC0BEF034EC0EF022
:10179800BAC0E1F0BBC0E2F0BCC0E3F01200800EBA
:1017A80004013019D8A41200C00E0001756F89D049
:1017B800320E0001726F7E0E0001736F000E000181
:1017C800776F120E766F120004013251D8A444D0FC
:1017D80004013251020D670EF324F66E7D0EF420DB
:1017E800F76E0900F5CF72F00A00F5CF73F0020E1C
:1017F800000172252D6E000E000173212E6E2DC082
:10180800F6FF2EC0F7FFF86A070EF76403D008004A
:10181800F55005D0F6CFE1FFF7CFE2FFE750000122
:10182800766F030E000172252D6E000E00017321E4
:101838002E6E2DC0F6FF2EC0F7FFF86A070EF7646C
:1018480003D00800F55005D0F6CFE1FFF7CFE2FF4F
:10185800E7500001776F1200000E0001756F12004B
:10186800030E0401326125D004013251020D610ECC
:10187800F324F66E7D0EF420F76E0900F5CF72F0B2
:101888000A00F5CF73F072C0F6FF73C0F7FFF86A6D
:10189800070EF76403D00800F55005D0F6CFE1FF36
:1018A800F7CFE2FFE7502D6E2D500001766F776B72
:1018B8001200000E0001756F1200000E0001756F16
:1018C800120004013351010AD8B472D7030AD8B4FC
:1018D8007BD7010AD8B4C4D7F0D7A09A000E6A6E95
:1018E800000E686E000E706E710E2D6E0F0E2E6E4D
:1018F800000E306E000E2F6E000E326E020E316E2C
:1019080036EC1BF0160E6F6E9F0E6B6E7B0E696EBB
:10191800000E356E0B0E356401D00ED03550040D17
:10192800000EF324D96E040EF420DA6EDE6ADE6A45
:10193800DE6ADD6A352AEED76D8C000E6E6E6D9804
:101948006D9C0CD06896000E0001756F000E0001AA
:101958006D6F000E00016F6F000E6E6F68B6F2D7E4
:10196800010E126E010E136E000E0F6E000E106E39
:10197800000E00019E6F000E356E020E356401D018
:101988002ED03550020D780EF324D96E000EF420B7
:10199800DA6E000EDE6E000EDD6E3550020D7E0E24
:1019A800F324D96E000EF420DA6E000EDE6E000EFF
:1019B800DD6E3550010D8B0EF324D96E000EF42028
:1019C800DA6E000EDF6E3550010D8E0EF324D96EDF
:1019D800000EF420DA6E000EDF6E352ACED7080E20
:1019E8000001786F040E0001796F160E706E040EF8
:1019F8000401036F300E026F080E0401016F040E1C
:101A08000401006F0401008F000E2B6E000E000110
:101A18009F6F120000019F05D8B46DBA07D0000E61
:101A2800686E69806988020E00019F6F68B469A4B6
:101A380003D068941EEC1BF06DA202D0A19A12008C
:101A480068B069A007D071EC0CF0A08A040E000100
:101A58009F6F689068B869A803D076EC1BF0689807
:101A680068AC18D069AC0ED0000E3A6E730E396EA1
:101A7800000E3B6E000E3C6E000E3E6E010E3D6E7B
:101A88004EEC19F0689C1450D8A414061450D8B41D
:101A98003BEC14F068BA69AA02D045EC1AF068B2B7
:101AA80069A20FD07F0E3A6E3968000E3B6E000EA9
:101AB8003C6E000E3E6E010E3D6E4EEC19F0000EAF
:101AC8006A6E040E00019F6102D0A19A120069A6F5
:101AD80039D0000E4A6E030E4A6401D033D068A68E
:101AE80031D06CCF2CF02C30E832E8320F0B186E66
:101AF80068962CB407D01850010D8E0EF324D96EB9
:101B0800000E06D01850010D8B0EF324D96E000E6E
:101B1800F420DA6E0001DF701850D8A403D0A6ECC8
:101B280012F00ED0000E3A6E720E396E2C0E3B6E0D
:101B3800000E3C6E000E3E6E000E3D6E4EEC19F02F
:101B48004A2AC9D7A19A120020EE01F00750D926D7
:101B58000850DA22DF502E6E2E5000016E5D000E06
:101B68006F59D8A06EC02EF02E5000016E5F000E87
:101B78006F5B000E2D6E12D02D50010D380EF32420
:101B8800D96E040EF420DA6E6AC0E1FF6BC0E2FF82
:101B9800DFCFE7FF00016A4B6B2B2D2A2E502D5CFF
:101BA800D8A0EAD700016E5100016F11D8B432D025
:101BB80020EE01F00950D9260A50DA22080EDF6E0D
:101BC80020EE02F00950D9260A50DA22380EDE6ECD
:101BD800040EDD6E07C0D9FF08C0DAFFDFBC0DD0E8
:101BE80009C0D9FF0AC0DAFF480EDF6E09C0D9FF65
:101BF8000AC0DAFF000EDB8E120009C0D9FF0AC046
:101C0800DAFF080EDF6E09C0D9FF0AC0DAFF000E3E
:101C1800DB8E120020EE01F00950D9260A50DA2294
:101C2800080EDF6E20EE02F00950D9260A50DA229B
:101C3800300EDE6E040EDD6E09C0D9FF0AC0DAFF71
:101C4800040EDF6E09C0D9FF0AC0DAFF000EDB8E72
:101C580000016D9F1150D8A412003BEC14F0120043
:101C68000001BD510001D8B408D00001BA510001EB
:101C7800BB110001BC11D8A411D0000E0001BA6F2D
:101C8800000E0001BB6F000E0001BC6F12000001C6
:101C9800BD2B0001D890BC33BB33BA33000E000112
:101CA800BA150001BF6F000E0001BB150001C06F1F
:101CB800FE0E0001BC150001C16F0001BF510001FB
:101CC800C0110001C111D8B411D0E1D70001BD2B5A
:101CD800010E0001BA27000E0001BB23000E00010F
:101CE800BC230001D890BC33BB33BA33000E0001CB
:101CF800BA150001BF6F000E0001BB150001C06FCF
:101D0800FF0E0001BC150001C16F0001BF510001A9
:101D1800C0110001C111D8B408D0D8D70001BD073F
:101D28000001D890BA37BB37BC370001BBBF04D01D
:101D3800020E0001BD61F2D70001BDB102D0000161
:101D4800BB9F0001D890BD330001BD510001BC13F9
:101D58000001BE510001D8B402D00001BC8FBAC046
:101D6800BAF0BBC0BBF0BCC0BCF012006D9800015B
:101D780075BF39D000016DAF0BD0020E166E105032
:101D8800D8B469EC16F0000E136E000E126E120035
:101D980020EE01F00950D9260A50DA22080EDF6E2B
:101DA80020EE02F00950D9260A50DA22300EDE6EF3
:101DB800040EDD6E09C0D9FF0AC0DAFF0C0EDF6E13
:101DC80009C0D9FF0AC0DAFF000EDB8E78C0D9FF40
:101DD80079C0DAFF040EDF6E78C0D9FF79C0DAFF68
:101DE800000EDB8E1200040130AF10D0010E166E0B
:101DF8000F50D8B469EC16F0000E136E000E126E78
:101E08001150D8A412003BEC14F01200020E166E0A
:101E180020EE01F00950D9260A50DA22080EDF6EAA
:101E280020EE02F00950D9260A50DA22300EDE6E72
:101E3800040EDD6E09C0D9FF0AC0DAFF040EDF6E9A
:101E480009C0D9FF0AC0DAFF000EDB8E000E136E40
:101E5800000E126E1150D8A412003BEC14F01200C0
:101E680004013039E832030B0009D8A4120050D01D
:101E78000001758F080E00019F6F1200D3EC0BF064
:101E88001200AEEC0FF012002B0E0001726F000E64
:101E98000001736F00017581010E0001766F00016A
:101EA800758F12005EEC15F012004BEC04F0120076
:101EB80004013451010D290EF3240001726F000E44
:101EC800F4200001736F00017581010E0001766F27
:101ED8000001758F12000001758F04013451010D46
:101EE800290EF324D96E000EF420DA6E32C4DFFF17
:101EF8001200000E3A6E020E396E000E3B6E000E96
:101F08003C6E000E3E6E000E3D6E4EEC19F0120057
:101F180004013151000AD8B4C5D7010AD8B4C5D7CD
:101F2800020AD8B4C2D7060AD8B4A2D7030AD8B4CA
:101F3800A5D7010AD8B4DDD70F0AD8B4A5D7010AA6
:101F4800D8B49FD7030AD8B4B3D7010AD8B4C3D733
:101F5800070A12000001758F710E2D6E0F0E2E6E7E
:101F6800000E306E000E2F6E000E326E020E316EB5
:101F780036EC1BF0000E2D6E040E2E6E000E306E29
:101F8800000E2F6E000E326E300E316E36EC1BF0E6
:101F98006D8C000E416E020E416401D016D0415086
:101FA800010D8B0EF324D96E000EF420DA6E000EAC
:101FB800DF6E4150010D8E0EF324D96E000EF42011
:101FC800DA6E000EDF6E412AE6D7290E2D6E000E5E
:101FD8002E6E000E306E000E2F6E000E326E020E48
:101FE800316E36EC1BF06D9C080E0001786F040E04
:101FF8000001796F000E076E040E086E07C009F025
:1020080008C00AF032C42BF02B50D8A404D0100E0C
:1020180000019F6F1200000E3A6E010E396E2B0EF2
:102028003B6E000E3C6E000E3E6E010E3D6E4EEC99
:1020380019F0200E00019F6F1200000E0001FD6FC5
:10204800000E0001FE6F000E0001FF6F000E000180
:10205800F96F010EF86F88C1C2F089C1C3F061EC55
:102068001BF0C2C0C6F0C3C0C7F0C4C0C8F09FC14F
:10207800C9F0A0C1CAF0A1C1CBF0D2EC09F0C6C02A
:10208800FAF0C7C0FBF0C8C0FCF0FD0E0001F06F0D
:10209800000E0001F16F870E69EC11F0F0C0F8F046
:1020A800F1C0F9F00001F8510001F911D8B406D0D7
:1020B800000E0001F76F010EF66F1200FDC0D5F09B
:1020C800FEC0D6F0FFC0D7F0FAC0D8F0FBC0D9F0F8
:1020D800FCC0DAF0D7EC13F00001D8A017D0FAC092
:1020E800D5F0FBC0D6F0FCC0D7F0FDC0D8F0FEC0DC
:1020F800D9F0FFC0DAF0D7EC13F00001D8A006D071
:10210800000E0001F76F000EF66F1200000E0001BE
:10211800F76F010EF66F1200000E0001FA6F000E45
:102128000001FB6F000E0001FC6FFA0E0001F06F5A
:10213800000E0001F16F870E69EC11F0F0C0F8F0A5
:10214800F1C0F9F00001F8510001F911D8B406D036
:10215800000E0001F76F010EF66F1200FAC0D5F0FD
:10216800FBC0D6F0FCC0D7F0A2C1C9F0A3C1CAF029
:10217800A4C1CBF088C1C2F089C1C3F061EC1BF0E7
:10218800C2C0C6F0C3C0C7F0C4C0C8F0D2EC09F0E2
:10219800C6C0D8F0C7C0D9F0C8C0DAF0D7EC13F081
:1021A8000001D8B006D0F6C0D9FFF7C0DAFF010E9B
:1021B80005D0F6C0D9FFF7C0DAFF000EDE6E000EBC
:1021C800DD6E6A0E0001DA6F7E0E0001DB6FFAC069
:1021D800DCF0FBC0DDF0FCC0DEF0F6C0DFF0F7C0DD
:1021E800E0F009EC18F0000E0001F76F000EF66F32
:1021F80012000001BE6F0001BA510001D8B408D026
:102208000001BE51020D780EF324D96E000E07D0DE
:102218000001BE51020D7E0EF324D96E000EF4208B
:10222800DA6EDECFBFF0DDCFC0F00001BF51000194
:10223800C011D8A407D0000E0001BA6F000E00012B
:10224800BB6F1200000120EE02F0BF51D926C05129
:10225800DA22BBC0DEFFBCC0DDFF000120EE01F0CA
:10226800BF51D926C051DA22BDC0DFFFBFC0D9FF98
:10227800C0C0DAFF400EDF16BFC0D9FFC0C0DAFF0A
:10228800000EDB86BFC0D9FFC0C0DAFF000EDB8EB0
:102298000001BA510001D8B408D00001BE51020DA6
:1022A800780EF324D96E000E07D00001BE51020D3E
:1022B8007E0EF324D96E000EF420DA6E040EDF1AB7
:1022C800BFC0BAF0C0C0BBF012000001F26F000E30
:1022D8000001F36F000E0001F46F000E0001F56FAE
:1022E8000001F2519EEC1BF0000E00019D6F0A0EDA
:1022F8009C6FD8EC1BF00009D8B406D000019C51A3
:1023080000019D11D8A4F5D700019C5100019D1131
:10231800D8A406D0000E0001F16F010EF06F120074
:10232800AFEC1BF0BAC0C2F0BBC0C3F023EC1AF08C
:10233800C2C0F3F0C3C0F4F0C4C0F5F0000E000151
:10234800E46F800E0001E56F440E0001E66FF3C0F4
:10235800E1F0F4C0E2F0F5C0E3F02DEC0BF0E1C0E1
:10236800C6F0E2C0C7F0E3C0C8F0000E0001C96FB4
:10237800A00E0001CA6F400E0001CB6FD2EC09F02D
:10238800F0C0D9FFF1C0DAFFC6C0DEFFC7C0DEFF6C
:10239800C8C0DEFF000E0001F16F000EF06F1200E2
:1023A800080E2D6E0001775111E1080E0001765DCF
:1023B800D8B00CD076C02DF01950D8A402D0010E98
:1023C80004D01904D8A402D0020E196E2D500001B1
:1023D800765F000E775B000120EE01F07851D92678
:1023E8007951DA222DC0DFFF380E0B6E040E0C6E09
:1023F800000175A11CD03AD072C0F6FF73C0F7FF78
:10240800F86A0BC0D9FF0CC0DAFF070EF76403D0D7
:102418000800F55005D0F6CFE1FFF7CFE2FFE7500F
:10242800DF6E0001724B732B0B4A0C2A2D062D50C0
:10243800D8B41200E1D772C0F6FF73C0F7FFF86A8C
:102448000BC0D9FF0CC0DAFF070EF76403D00800F1
:10245800F55005D0F6CFE1FFF7CFE2FFE750DF6E8A
:102468000001724B732B0B4A0C2A2D062D50D8B441
:102478001200E1D7040130511F0BE806D8A412005E
:1024880004013039E832030BE806D8A4120004012D
:102498003451D8B445D004013405D8A4120040D032
:1024A8001A0E0001726F000E0001736F000E00011A
:1024B800776F080E766F000175810001758F120025
:1024C8001A0E0001726F000E0001736F0001758F04
:1024D800120036C46EF037C46FF0220E00016A6F26
:1024E800000E00016B6F000E0001706F000E0001FE
:1024F800716F00016D8F1200220E0001726F000EC5
:102508000001736F000E0001776F070E766FC10E22
:102518000001756F120032C417F00001758F1200A8
:1025280004013151000AD8B4BBD7010AD8B4C8D7BE
:10253800210AD8B4CED7010AD8B4DED7030AD8A462
:102548001200E9D72D0E146E2CC047F0FD0E471669
:10255800D8A457D02CC047F0D89047323F0E471622
:102568004750040D000EF324076E040EF420086E85
:1025780007C009F008C00AF0040E091A07C0D9FFFD
:1025880008C0DAFFDF30E8320F0B0D0AD8A436D0C6
:10259800000E496E070E496401D023D020EE02F0E8
:1025A8000750D9260850DA22DECF47F0DDCF48F0B1
:1025B80047C0D9FF48C0DAFF4950010D300EF32457
:1025C800E16E040EF420E26EDFCFE7FF20EE02F0AA
:1025D8000750D9260850DA22DE2A000EDD22492AC1
:1025E800D9D720EE02F00750D9260850DA22300E4B
:1025F800DE6E040EDD6E02EC17F012007CEC19F0B2
:1026080012002C50FD0B040AD8A412009DEC14F003
:10261800120053D0BAC0D9FFBBC0DAFFDF50D8B41C
:102628001BD0BAC0D9FFBBC0DAFFDF500001C06FB2
:10263800BCC0F6FFBDC0F7FFF86A070EF76403D009
:102648000800F55005D0F6CFE1FFF7CFE2FFE750DD
:102658000001C019D8B42BD0BCC0F6FFBDC0F7FF2D
:10266800F86A070EF76403D00800F55005D0F6CFD6
:10267800E1FFF7CFE2FFE7500001C06FC16B000137
:10268800C01FC11FC04BC12BBAC0D9FFBBC0DAFFE6
:10269800DF500001C26F0001C2510001C0250001D6
:1026A800BA6F000E0001C1210001BB6F12000001CA
:1026B800BA4BBB2B0001BC4BBD2B0001BE07D8A0F9
:1026C800BF070001BE29A6E10001BF29D8A4A2D7EF
:1026D800000E0001BB6F000EBA6F12000001F86F08
:1026E800000E0001FC6F000EFB6FAC0E0001F06FD6
:1026F800000E0001F16F0001F85169EC11F0F0C013
:10270800F9F0F1C0FAF00001F9510001FA11D8B45A
:1027180006D0000E0001F76F010EF66F1200A30E2F
:102728000001F06F000E0001F16F5BEC02F0000198
:10273800FB4BFC2B000E0001D56F000E0001D66F7D
:10274800400E0001D76FAFC0D8F0B0C0D9F0B1C00B
:10275800DAF0D7EC13F00001D8A014D0AFC0D5F050
:10276800B0C0D6F0B1C0D7F0000E0001D86F000E8F
:102778000001D96FC00E0001DA6FD7EC13F0000129
:10278800D8B00BD00001FCBFB0D70001FC5105E167
:10279800050E0001FB5DD8A0A8D7000E0001F76F59
:1027A800000EF66F12000001D7AF1DD0D5C0DBF0C8
:1027B800D6C0DCF0D7C0DDF00001DB1FDC1FDD1F59
:1027C800DB2B000EDC23DD23000E0001DB250001DE
:1027D800D56F000E0001DC210001D66F800E0001CC
:1027E800DD210001D76F0001DAAF1DD0D8C0DBF0C2
:1027F800D9C0DCF0DAC0DDF00001DB1FDC1FDD1F13
:10280800DB2B000EDC23DD23000E0001DB2500019D
:10281800D86F000E0001DC210001D96F800E000185
:10282800DD210001DA6F000E0001D51B000E00014A
:10283800D61B800E0001D71B000E0001D81B000E0E
:102848000001D91B800E0001DA1B0001D8510001DC
:10285800D55D0001D9510001D6590001DA510001B6
:10286800D759D8B002D0D8901200D8801200125090
:10287800D8A41200010E126E1350D8A41200010E33
:10288800136E020E1618D8A416D0000120EE01F01F
:102898007851D9267951DA22000EDF6E78C0D9FF37
:1028A80079C0DAFF480EDF6E78C0D9FF79C0DAFF49
:1028B800000EDB8E12001604D8A41200000E0D6E56
:1028C80020EE01F00750D9260850DA22080EDF6EF4
:1028D80020EE02F00750D9260850DA22300EDE6EBC
:1028E800040EDD6E07C0D9FF08C0DAFF040EDF6EE4
:1028F80007C0D9FF08C0DAFF000EDB8E010E0D6E8F
:1029080020EE01F00950D9260A50DA22080EDF6EAF
:1029180020EE02F00950D9260A50DA22300EDE6E77
:10292800040EDD6E09C0D9FF0AC0DAFF800EDF6E23
:10293800120078C0D9FF79C0DAFF000EDFBC010EA3
:102948002E6E040E0001781B080E00019F19D8A4F2
:102958000CD0040132517F0B6E6E6E50D8B402D089
:10296800100E01D0040E00019F6F1604D8A43BD0AE
:10297800000120EE02F07851D9267951DA22380E7A
:10298800DE6E040EDD6ED4EC11F0020E1918D8A418
:102998000DD078C0D9FF79C0DAFF040EDF6E78C099
:1029A800D9FF79C0DAFF000EDB8E12002E50D8A4B2
:1029B8000DD078C0D9FF79C0DAFF480EDF6E78C035
:1029C800D9FF79C0DAFF000EDB8E120078C0D9FF7C
:1029D80079C0DAFF080EDF6E78C0D9FF79C0DAFF58
:1029E800000EDB8E120000016DAF02D000016D9F5A
:1029F800000E166E1200000E0001BF6F0001BDAF81
:102A080008D00001BC6DBD1FD8B0BD2B010E000160
:102A1800BF6F0001BBAF08D00001BA6DBB1FD8B0B3
:102A2800BB2B010E0001BF1B000E0001C16F000E81
:102A3800C06F0001BC510001BD11D8B42CD0010EEB
:102A48000001BE6F06D00001D890BC37BD37000129
:102A5800BE2B0001BDAFF7D70001D890C037C137F2
:102A68000001BC510001BA5D0001BD510001BB5914
:102A7800D8A00AD00001BC510001BA5F0001BD51C5
:102A88000001BB5B0001C0810001D890BD33BC339D
:102A98000001BE2FE1D70001BF510001D8B405D015
:102AA8000001C06DC11FD8B0C12BC0C0BAF0C1C0F1
:102AB800BBF01200000E0401386F000E0401396FDC
:102AC8003BD00001758F0E04D8A442D0040138838E
:102AD8003FD00001758F3CD00001758F040134BFD1
:102AE8000BD0040134510F0B2D6E2D50020D7E0EAC
:102AF800F324D96E000E0AD0040134510F0B2D6E49
:102B08002D50020D780EF324D96E000EF420DA6EE3
:102B1800DECF2EF0DDCF2FF02EC0D9FF2FC0DAFF89
:102B2800DFAE16D02EC0D9FF2FC0DAFFDFA410D039
:102B3800010E0401386F0CD0040130511F0B000A3C
:102B4800D8B4BFD7010AD8B4C4D7030AD8B4C4D7F5
:102B5800000175AF1200380E0001726F040E0001FB
:102B6800736F00017581020E0001766F1200316EDD
:102B78002D50D8B407D03150020D780EF324D96EF9
:102B8800000E06D03150020D7E0EF324D96E000ED1
:102B9800F420DA6EDECF32F0DDCF33F0325033106E
:102BA800D8A405D0000E2D6E000E2E6E120020EE59
:102BB80002F03250D9263350DA222EC0DEFF2FC061
:102BC800DDFF20EE01F03250D9263350DA2230C032
:102BD800DFFF32C0D9FF33C0DAFF400EDF1632C044
:102BE800D9FF33C0DAFF000EDB8632C0D9FF33C00D
:102BF800DAFF000EDB8E2D50D8B407D03150020D0D
:102C0800780EF324D96E000E06D03150020D7E0ED8
:102C1800F324D96E000EF420DA6E040EDF1A32C0E7
:102C28002DF033C02EF012000B0E0101E26F830E5F
:102C38000001BA6F010E0001BB6FEE0E0001BC6F00
:102C48007F0E0001BD6F000E0001BF6F050EBE6F45
:102C580042EC18F0000E0101A26FA00E0101A36F53
:102C6800400E0101A46F000E0101896F010E886FEB
:102C7800000E0101A76F000E0101A86F3F0E0101B0
:102C8800A96F000E0001846F000E856F000E866F1D
:102C9800000E876F040E0001BA6FFE0E0001BB6FB5
:102CA800E70E8FEC17F08F0EEDEC1AF081EC0AF0BE
:102CB800D3EC1AF0000E0001A66F020EA56F000EED
:102CC8000001A46F230EA36F1200000E0F6E000EFA
:102CD800106E020E1618D8A41FD020EE01F009506D
:102CE800D9260A50DA22080EDF6E20EE02F00950CB
:102CF800D9260A50DA22380EDE6E040EDD6E09C0BF
:102D0800D9FF0AC0DAFF480EDF6E09C0D9FF0AC032
:102D1800DAFF000EDB8E1200000176510401365DE9
:102D28000001775104013759D8B004D036C476F081
:102D380037C477F0D4EC11F0000120EE02F078519E
:102D4800D9267951DA22380EDE6E040EDD6E78C08F
:102D5800D9FF79C0DAFF480EDF6E78C0D9FF79C095
:102D6800DAFF000EDB8E1200326E000E336E040E98
:102D7800346E2D502E6E2F6AD8902E362F36325044
:102D8800306E316AD89030363136D8903036313698
:102D98002E5030262F503122D89030363136D890E8
:102DA80030363136305033263150342233C0D9FFD3
:102DB80034C0DAFFDF9E2D50D8A407D03250020D60
:102DC8007E0EF324D96E000E06D03250020D780E16
:102DD800F324D96E000EF420DA6E33C0DEFF34C05F
:102DE800DDFF33C0D9FF34C0DAFFDF9C20EE04F0EA
:102DF8003350D9263450DA22DF8C1200000E196EB7
:102E0800000E116E000E0F6E000E106E000E0D6E8D
:102E1800000E166E78C0D9FF79C0DAFF7F0EDF1674
:102E2800040E0001781B78C0D9FF79C0DAFF7F0E45
:102E3800DF16040E0001781B09C0D9FF0AC0DAFFAB
:102E48007F0EDF16000E0001756F000E0001776F10
:102E5800000E766F000E00016D6F000E00016F6F9F
:102E6800000E6E6F34EC0FF0000E3A6E030E396EE2
:102E7800000E3B6E000E3C6E000E3E6E000E3D6E68
:102E88004EEC19F0BAEC0EF01200000E0001C96FFA
:102E9800000EC86F0001C2510001845D0001C351DA
:102EA800000185590001C45100018659000187516C
:102EB800800A0001C66F0001C551800A0001C65989
:102EC800D8A024D0C2C0C6F0C3C0C7F00001C61F36
:102ED800C71FC64BC72B000184510001C62500013E
:102EE800C86F000185510001C7210001C96FC8C022
:102EF800BAF0C9C0BBF0000E0001BD6F3C0EBC6F3C
:102F0800FFEC14F0BAC0C8F0BBC0C9F0C8C0C2F02A
:102F1800C9C0C3F012000001BE6F000EC26E000EE1
:102F2800C06E0001D890BA313C0BC26EBAC0BCF07A
:102F38000001BC3BF00EBC17300E0001BC170001AD
:102F4800BB510F0B0001BC11C16EBEC0BCF000012B
:102F5800D890BC370001D890BC37380E0001BC1798
:102F6800BEC0BDF00001BD3B0F0EBD17070E00012E
:102F7800BD170001BE51800B0001BD110001BC113D
:102F8800C06E0001BAAF03D09E9C9D8CF28CC280AB
:102F98001200000E0001C06F000EBF6F0001BC518F
:102FA8000001BD11D8B42CD0010E0001BE6F06D0AF
:102FB8000001D890BC37BD370001BE2B0001BDAF62
:102FC800F7D70001D890BF37C0370001BC510001C6
:102FD800BA5D0001BD510001BB59D8A00AD000015B
:102FE800BC510001BA5F0001BD510001BB5B00018B
:102FF800BF810001D890BD33BC330001BE2FE1D79B
:10300800BFC0BAF0C0C0BBF01200DC0E0001E16F17
:10301800000E0001E26F000E0001C16F020E0001F8
:10302800C26FDAC0C3F0DBC0C4F0E10E0001C56FA7
:10303800000E0001C66F0DEC00F01F0E00019F6529
:1030480012006DB212000001A151D8A414D0000ED4
:103058000001C06F020E0001C16F000E0001BA6FBF
:10306800020E0001BB6FFEEC19F00001BA5100011D
:10307800C26F8BEC1BF00EEC09F01200BAC0C0F066
:10308800BBC0C1F018D00001BE07D8A0BF07BCC0A4
:10309800F6FFBDC0F7FF0001BC4BBD2BC0C0D9FF78
:1030A800C1C0DAFF0001C04BC12B0800F5CFDFFF1C
:1030B800DF50D8B410D00001BE510001BF11D8B400
:1030C8000AD0E1D7C0C0D9FFC1C0DAFF000EDF6E59
:1030D8000001C04BC12B0001BE07D8A0BF070001EB
:1030E800BE29F0E10001BF29D8B41200EBD70600D1
:1030F800E9CF4DF0EACF4EF0E1CF4FF0E2CF50F0FC
:10310800D9CF51F0DACF52F0F3CF53F0F4CF54F0D7
:10311800F6CF55F0F7CF56F0F8CF57F0F5CF58F077
:103128000EEC0DF058C0F5FF57C0F8FF56C0F7FF7A
:1031380055C0F6FF54C0F4FF53C0F3FF52C0DAFF86
:1031480051C0D9FF50C0E2FF4FC0E1FF4EC0EAFFB7
:103158004DC0E9FF4CC0FBFF4BC0FAFF599211006C
:1031680088C1C2F089C1C3F061EC1BF0C2C0C6F0CF
:10317800C3C0C7F0C4C0C8F09FC1C9F0A0C1CAF09D
:10318800A1C1CBF0D2EC09F0C6C0A9F0C7C0AAF023
:10319800C8C0ABF0000E0001B96F000EB86F870E03
:1031A80072EC13F0F6C000F1F7C001F10101005113
:1031B80001010111D8B406D0000E0001FE6F010E06
:1031C800FD6F1200000E0001FE6F000EFD6F120071
:1031D800000E226E4B0E236E000E246E000E256E1E
:1031E800000E266E000E276E080E286E000E156E55
:1031F8001A0E356E010E66EC1AF01E0E356E020EB2
:1032080066EC1AF0000E2D6E400E2E6E050E2F6E17
:10321800400E306E020EBBEC15F02DC005F02EC02E
:1032280006F0000E00019A6F000E00019B6F000E61
:103238000001A16F120002EE00F0400EEE6AE806EF
:10324800FDE101EE77F05C0EEE6AE806FDE100EEC6
:1032580060F05A0EEE6AE806FDE100EE01F02C0E71
:10326800EE6AE806FDE1700EF66E370EF76E000E98
:10327800F86E01EED3F010EE0FF00900F5CFEEFF77
:10328800E550E150FAE159905992000EF86E0001AC
:10329800E4EF1BF006D0E8EC1BF012003EEC12F055
:1032A800120039C03FF03AC040F04050000AD8B48C
:1032B80004D07F0AD8A4120018D03F50010AD8B40D
:1032C800EAD7030AD8B41200010AD8B4E7D7060A25
:1032D800D8B41200770AD8B41200010AD8B4120080
:1032E800070AD8B41200010A12003F50FF0A120060
:1032F800020E1618D8A403D0A8EC0DF01200000E88
:10330800166E0D50D8A41FD020EE01F00950D92612
:103318000A50DA22080EDF6E20EE02F00950D92694
:103328000A50DA22300EDE6E040EDD6E09C0D9FFB7
:103338000AC0DAFF0C0EDF6E09C0D9FF0AC0DAFF37
:10334800000EDB8E1200000E0D6E1200A7C1A9F050
:10335800A8C1AAF0A9C1ABF0000E0001B96F000E18
:10336800B86FD70E72EC13F0F6C000F1F7C001F198
:103378000101005101010111D8B406D0000E00016D
:10338800FE6F010EFD6F120084C097F085C098F0A3
:1033980086C099F0000E0001FE6F000EFD6F12004E
:1033A8008CC1A9F08DC1AAF08EC1ABF0000E00014E
:1033B800B96F000EB86FD70E72EC13F0F6C000F1BB
:1033C800F7C001F10101005101010111D8B406D083
:1033D800000E0001FE6F010EFD6F120084C088F020
:1033E80085C089F086C08AF0000E0001FE6F000ECD
:1033F800FD6F1200BAC0BEF0BBC0BFF003D0000121
:10340800BE4BBF2BBEC0D9FFBFC0DAFFDF50D8A468
:10341800F6D7BAC0BCF0BBC0BDF00001BC1FBD1FD1
:10342800BC4BBD2B0001BE510001BC250001BA6F89
:103438000001BF510001BD210001BB6F1200000E49
:103448000001C56F0001C3AF08D00001C26DC31FE2
:10345800D8B0C32B010E0001C56FC2C0BAF0C3C0FB
:10346800BBF00001BC6B8E0E0001BD6FC5C0BEF085
:1034780034EC0EF0BAC0C2F0BBC0C3F0BCC0C4F09C
:10348800120070A01DD007C0D9FF08C0DAFF800E57
:10349800DE18D8A414D078C0D9FF79C0DAFF840E1A
:1034A800DE18D8A40CD007C0D9FF08C0DAFF0C0E6C
:1034B800DF6E07C0D9FF08C0DAFF000EDB8E709000
:1034C800689A1200386E35A405D0000E2D6E38505B
:1034D800B8EC16F035A205D0010E2D6E3850B8ECB8
:1034E80016F03850010D700EF324366E0F0EF420CE
:1034F800376E36C0D9FF37C0DAFF35C0DFFF12009C
:103508000001BA510001BC03F3CFBEF0F4CFBFF005
:103518000001BA510001BD03F3500001BF270001AB
:10352800BB510001BC03F3500001BF27BEC0BAF075
:10353800BFC0BBF01200BAC0BEF0BBC0BFF006D01F
:103548000001BE4BBF2B0001BC4BBD2BBCC0F6FF1E
:10355800BDC0F7FFBEC0D9FFBFC0DAFF0800F5CF76
:10356800DFFFDF50D8B41200EBD7BAC0C0F0BBC041
:10357800C1F009D0C0C0D9FFC1C0DAFFBCC0DFFFAD
:103588000001C04BC12B0001BE07D8A0BF07000136
:10359800BE29F0E10001BF29D8B41200EBD7000121
:1035A8009F51D8A41200000E6D6E000E696E160EA3
:1035B8006F6E9F0E6B6E7B0E696ED08EA28AA08A8C
:1035C800F28E01D06D866DA6FDD7010E00019F6FAA
:1035D80012000001BA6F0001BA517E0BCD6E0001D6
:1035E800BAAD02D0CD8E01D0CD9E000ECF6E000EAA
:1035F800CE6E9E900001BAAF02D09D8001D09D9002
:10360800CD8012000001BA510001BB110001BC11AC
:10361800D8B409D0000E0001BA1B000E0001BB1B74
:10362800800E0001BC1BBAC0BAF0BBC0BBF0BCC066
:10363800BCF01200000E00019E6F000E3A6E740E70
:10364800396E000E3B6E000E3C6E000E3E6E000E94
:103658003D6E4EEC19F06D92699401D0689468A49F
:103668001200FCD72DC033F02EC034F008D033C080
:10367800D9FF34C0DAFF2FC0DFFF334A342A3106BE
:10368800D8A032063128F3E13228D8B41200EFD797
:103698000001BC6F000E0001BB6F3A0E0001BC6157
:1036A80007D02F0E0001BC6503D0010E0001BB6FCF
:1036B800BBC0BAF00001BA311200C2C0BAF0C3C030
:1036C800BBF00001BC6B8E0E0001BD6F000E000147
:1036D800BE6F34EC0EF0BAC0C2F0BBC0C3F0BCC0C1
:1036E800C4F01200698468986D82010E00019E6F13
:1036F800000E3A6E750E396E000E3B6E000E3C6E73
:10370800000E3E6E000E3D6E4EEC19F01200A09AAF
:103718000001A151D8A40CD0C0C094F0C1C095F04C
:10372800C2C0A2F0010E0001A06F010E0001A16F3E
:10373800A08A12000001BB6FBBC0BAF00001D8908C
:10374800BA333C0E0001BA17C250C30B0001BA11BC
:10375800C26EC2821200C4500001BC6FC350000187
:10376800BA6FBCC0BBF012004C49504F004E494DD7
:103778004800504200000000000E0001BB6F000E20
:10378800BA6F1200000E0001BB6F000EBA6F120074
:10379800000E0001BB6F000EBA6F1200000E000190
:1037A800BB6F000EBA6F1200C2A202D0010E120047
:1037B800000E1200000E0001BB6F000EBA6F12005F
:1037C80018EC16F00BEF00F0ECEC18F012001200F9
:0637D800120012001200B5
:107D5800000100100000010010447EFA7D697DB723
:107D68007D4E034300440043002000520053002D81
:107D780000320033003200200045006D0075006CB1
:107D8800006100740069006F006E00200044006507
:107D9800006D006F00200028002D003E00200031FB
:107DA800003800460032003500350030002900094F
:107DB800024300020100C03209040000010202016E
:107DC8000005240010010424020205240600010510
:107DD80024010001070581030800020904010002CB
:107DE8000A00000007050202400000070582024061
:107DF80000003803410020004D0069006300720054
:107E08006F0063006800690070002000540065007E
:107E1800630068006E006F006C006F0067007900F7
:107E2800200049006E0063002E00120100020200CB
:107E38000008D8040A000100010200010403090433
:107E4800707265636F6E646974696F6E20766572AF
:107E5800696669636174696F6E206661696C7572C1
:107E68006500766F6C74616765203A2025662C2062
:107E7800707265636F6E646974696F6E203A20254D
:107E8800686400507265636F6E646974696F6E2010
:107E98007361666574792074696D657220656E64B6
:107EA800656400507265636F6E646974696F6E20F3
:107EB8007374617274696E67206661696C75726546
:107EC80000507265636F6E646974696F6E206368D1
:107ED80065636B206661696C757265004343207643
:107EE8006572696669636174696F6E206661696C41
:107EF80075726500435620766572696669636174B8
:107F0800696F6E206661696C757265004343207302
:107F180061666574792074696D657220656E646543
:107F280064004356207361666574792074696D65D1
:107F38007220656E646564004343207374617274D3
:107F4800696E67206661696C7572650043562073B7
:107F580074617274696E67206661696C7572650018
:107F680043562073746F70696E67206661696C751B
:107F78007265004C696F7020636865636B20666189
:107F8800696C7572650050726F6772616D206C69FB
:107F98007374204572726F720042617474657279ED
:107FA800206C697374204572726F72004163746942
:107FB8006F6E206C697374204572726F7200303175
:107FC8003233343536373839616263646566004365
:107FD800686172676572204572726F720050524F05
:107FE8004752455353004C49504F000054494D45A2
:087FF8005200454E4400000058
:020000040020DA
:08000000FFFFFFFFFFFFFFFF00
:020000040030CA
:0E000000240E3F1EFF8085FF0FC00FE00F4053
:00000001FF
